:020000040C00EE
:100000000090FE1F01020008910200089102000802
:10001000910200089102000891020008000000000F
:100020000000000000000000000000009102000835
:1000300091020008000000009102000891020008EF
:100040009102000891020008910200089102000844
:100050009102000891020008910200089102000834
:1000600091020008000000000000000000000000F5
:1000700091020008000000009102000891020008AF
:100080009102000891020008910200089102000804
:1000900091020008910200089102000891020008F4
:1000A00091020008910200089102000891020008E4
:1000B00091020008910200089102000891020008D4
:1000C00091020008910200089102000891020008C4
:1000D00091020008910200089102000891020008B4
:1000E00091020008910200089102000891020008A4
:1000F0009102000891020008910200089102000894
:100100009102000855990208910200089102000826
:100110009102000891020008910200089102000873
:10012000859202086D980208C5920208059F020890
:10013000910200089102000891020008259202082D
:100140009102000891020008910200089102000843
:100150009102000891020008910200089102000833
:10016000000000000000000000000000000000008F
:100170009102000891020008910200089102000813
:100180009102000891020008910200089102000803
:1001900091020008910200089102000891020008F3
:1001A00091020008910200089102000891020008E3
:1001B00091020008910200089102000891020008D3
:1001C00091020008910200089102000891020008C3
:1001D000910200089102000891020008000000004E
:1001E00091020008E566020891020008555E0208C7
:1001F0009102000800000000F16602080000000003
:10020000DFF870D01C4880471C4C1D4DAC4209DA09
:1002100021686268A368043BA2BFC858D050FAE7BF
:100220000C34F3E7174B184CA34208DA19685A68E4
:100230000020043AA4BF8850FBE70833F4E71348D2
:100240008047000000C2020C0090FE1FA8060000BC
:1002500000C2020C0090FE1F00000000A896FE1FC6
:100260009C6A000000000020000E0000000E00202C
:10027000000000000090FE1F310802084402000840
:100280005C0200085C02000874020008F1A4020885
:04029000FEE7000085
:020000040C02EC
:10000000014B1868704700BFAC96FE1F014B18608B
:10001000704700BFA896FE1F00487047B496FE1FA9
:10002000D0ED027AB7EE007AF4EEC77AF1EE10FA6C
:10003000034633DB9FED1B7AF4EEC77AF1EE10FA3C
:1000400095BF0222032200200120D3ED047A93ED14
:10005000037AF4EEC77AF1EE10FA07DCDFED126AEC
:10006000F4EE667AF1EE10FA98BF1046F4EEC77A15
:10007000D3ED0A7AB7EE007AF1EE10FAF4EEC77A11
:1000800048BF0430F1EE10FA07DA9FED067AF4EE7D
:10009000C77AF1EE10FA98BF0830704703220120AA
:1000A000D3E700BF0000FA440000874470B54369FD
:1000B000C46A0546B4F57A7FA3F57A738CBF012430
:1000C0000024B3F57A6F88BF02342E6A09F074FDFC
:1000D000864208D22A6A4FF47A7303FB02F3B3F51F
:1000E000FA6F98BF04346B6A1F2B2B7E98BF0834BD
:1000F0000C2B18BF1034204670BD00BF004870475D
:100100002497FE1F00487047E496FE1F08B5044977
:10011000044840220BF0E4F9003018BF012008BD6C
:100120002497FE1FE496FE1F30B4074D074C0FCDF9
:100130000FC40FCD0FC40FCD0FC495E80F0084E896
:100140000F0030BC704700BF2497FE1FE496FE1FCF
:1001500030B4074D074C0FCD0FC40FCD0FC40FCDDA
:100160000FC495E80F0084E80F0030BC704700BF53
:10017000E496FE1F2497FE1F2DE9F043BD4883B08F
:10018000092100F0B3FA032804461AD002283BD014
:1001900008F044FB08F056FB08F068FB042C00F064
:1001A0008D81B549B54805F0C3FEB44809F0CEF8D5
:1001B00044F2011000F012FD43F2010003B0BDE86B
:1001C000F083AF48092100F091FA0228044600F0BC
:1001D0008B8108F023FB08F035FB08F047FB042C6B
:1001E00000F06C81032CDCD1A649A44805F0A0FEE8
:1001F000A24809F0ABF84FF4824000F0EFFC4FF456
:10020000405003B0BDE8F08302279F499F48402239
:1002100006F08EFB9D4806F0CDFB9D492C2204463E
:100220009A4806F085FB994806F0C4FB0221054672
:10023000E02201A800F01EFA012800F00281062841
:1002400024D0DFF86482934E924C40212046202235
:1002500000F010FA012804D18F4B62689A4200F036
:100260000481894C8B4D0FCC0FC50FCC0FC50FCC23
:100270000FC594E80F0085E80F00A4F1300040217D
:10028000202200F0BFF9012821D0FEE701A80221B9
:10029000E0228DF804408DF8055000F0B3F97A4C57
:1002A0007C4E0FCC35460FC50FCC0FC50FCC0FC5FC
:1002B00094E80F0085E80F00A4F1300040212022CF
:1002C00000F0A0F90128864600F0A180FEE7734BFC
:1002D0001860704D724CDFF8D091DFF8DCE10FCD83
:1002E0000FC40FCD0FC40FCD0FC495E80F0084E8E5
:1002F0000F0048462C21A022CEF8007000F0BAF979
:10030000012804D1674BD9F804209A4212D0604CDE
:10031000654D0FCC0FC50FCC0FC594E8070085E8DD
:100320000700A4F120002C21A02200F06BF9012885
:1003300004D0FEE7D9F800302C2BE8D1D8ED027AB2
:10034000B7EE007AF4EEC77AF1EE10FA5CDB9FEDBF
:10035000577AF4EEC77AF1EE10FA95BF0223032321
:1003600000240124D8ED047A98ED037AF4EEC77ADC
:10037000F1EE10FA07DCDFED4E6AF4EE667AF1EE8C
:1003800010FA98BF1C46F4EEC77AD8ED0A7AB7EE99
:10039000007AF1EE10FAF4EEC77A48BF0434F1EEB9
:1003A00010FA07DA9FED417AF4EEC77AF1EE10FA0F
:1003B00098BF0834F06A7369364FD6F82080B0F5DC
:1003C0007A7FA3F57A738CBF012500253846B3F5F3
:1003D0007A6F88BF023509F0EFFB804508D23A6A90
:1003E0004FF47A7303FB02F3B3F5FA6F98BF043549
:1003F000736A1F2B337E98BF08350C2B18BF10353E
:10040000281903B0BDE8F08303230124AAE7204C98
:10041000DFF89480DFF884C00FCC45460FC50FCCC1
:100420000FC594E8070085E80700A4F120002C21FF
:10043000A022CCF800E000F0E5F801283FF404AF7A
:10044000FEE79DF804309C4202D1AC423FF4F9AE85
:10045000184B8DF8044001A801240221E0228DF8F8
:1004600005501C6000F0CEF819E72368402B7FF49C
:10047000F8AE2EE70090FE1F80969800E891FE1FD0
:100480000C90FE1F005A620238B502089494FE1FB9
:100490005090FE1F2497FE1F1E0E0300B096FE1FF5
:1004A000E496FE1FC6E90200B496FE1F0000FA445F
:1004B00000008744E096FE1FAC96FE1F00F052F944
:1004C00001287FF4A1AE08F0B3F90849084805F007
:1004D0002FFD074808F03AFF44F2021000F07EFBBF
:1004E000044803B0BDE8F08301278EE6002D3101FA
:1004F000E891FE1F02000300004870471890FE1F9D
:1005000084B038B50C4CE56A0DF1100E8EE80F0082
:1005100015B1204600F00CFA04AD0FCD064C0FC407
:100520000FCD0FC40FCD0FC495E8030084E803007E
:10053000BDE8384004B070471890FE1F38B50A4C2B
:100540000A4D0FCC0FC50FCC0FC594E8070085E806
:100550000700A4F120002C21A02200F053F801286C
:1005600000D0FEE738BD00BF5090FE1FB496FE1FBE
:1005700008B504482C21A02200F044F8012800D03E
:10058000FEE708BDB496FE1F38B50C4C0C4D0FCCE1
:100590000FC50FCC0FC50FCC0FC594E80F0085E831
:1005A0000F00A4F130004021202200F02BF8012898
:1005B00000D0FEE7034B186038BD00BF38B5020815
:1005C0002497FE1FB096FE1F08B504484021202244
:1005D00000F018F8012800D0FEE708BD2497FE1FA0
:1005E000014B01221A607047B096FE1F014B00229A
:1005F0001A607047B096FE1F014B1868704700BF25
:10060000B096FE1F2DE9F8438D08AB1C9B0003F14B
:100610000A0424F0070400AFADEB040D00B119B9D2
:100620000220BD46BDE8F8838C07064691460C467D
:100630001A4668464FF0000118BF01350AF06BFFFB
:100640003146224668460AF05BFF69462A4608485A
:1006500006F06EF9064806F0ADF96A1C4DF8250063
:1006600092004846694607F095FEBD46BDE8F8830E
:100670009494FE1F2DE9F0478D08AB1C9B0003F1FD
:100680000A0424F0070400AFADEB040D00B119B962
:100690000220BD46BDE8F0878C0718BF013514461F
:1006A00006461A468946684600210AF034FF6A1C4D
:1006B00020469200694607F0A7FF69462A4604468D
:1006C00009485DF825A006F033F9074806F072F9ED
:1006D0005045DDD1012CDBD1304669464A460AF04F
:1006E0000FFF2046D5E700BF9494FE1F10B14B1EAC
:1006F0001F2B01D901207047F0B5002489B00F46A7
:100700000546694620463A460094019402940394B3
:10071000049405940694079407F076FF012802D00C
:10072000052009B0F0BD791C28462346C9B20DF159
:10073000FF3204E0F3B28B42F2D09F420CD010F8AB
:10074000014B12F8015FA54203F10106F2D0022B22
:100750008CBF03200420E4E70478002CEFD10220B2
:10076000DFE700BF00B5074B93E8070085B001AB9A
:1007700003C301A91A700020092207F00BFE05B07F
:100780005DF804FB78B5020800487047B0B5020870
:1007900010B50446FFF7B2FCC269416A84E806005E
:1007A00090F8282022720223637210BD1C4BDB6874
:1007B000D90310B51DD51B4BDB68DA072CD51A48B9
:1007C000184A13685B0716D4936803F07F0301335C
:1007D000B0FBF3F3124A1549D0681269C0B202F0B7
:1007E000010201300132B3FBF0F0B0FBF2F008601F
:1007F00010BD0D4BEEE7916893689468C1F30362F6
:100800000132C4F30641C3F3062301FB0222B0FB0D
:10081000F2F003FB0003DDE707F0F0F8D0E700BFDC
:10082000004600501047005000366E01C0FF032004
:1008300010B54FF000530FCB034C84E80F0006F0C7
:10084000E1F807F0DFF810BDC4FF0320C36A73B1FD
:1008500070B4C58844690669A94204FB01F006FB2F
:10086000020200D3FEE71344184670BC70471846D6
:10087000704700BF2DE9F041BDF82060BDF818C0F9
:10088000BDF81CE0099DC561741E48BFB41DE4108D
:100890000CFB03F701340EFB07F7002607FB04F7F8
:1008A0004FF00108BEF1040F048183800762A0F8B5
:1008B00002C0A0F806E0C162C26080F830808662A3
:1008C0004662866106701BD851B38AB197421FD821
:1008D0000B460CFB04F403F8016B01334E7003F874
:1008E000016B0EFB04F21E7002614461BDE8F081F1
:1008F0000423C262C260026280F83030BDE8F08139
:100900000523C662C660066280F83030BDE8F0811B
:100910000323C662C660066280F83030BDE8F0810D
:100920000CFB04F40EFB04F303614461BDE8F081A9
:100930000622002380F8302003627047F0B50C4691
:100940009DB009B100230B60FFF716FC0028C8BF5B
:100950004FF4807001DD1DB0F0BDFFF7CFFB054601
:100960000BA8FFF715FF002000F02EF99DF834309A
:100970000BB90820EFE70C9B002BFAD00B9EA6F1D9
:100980002002E02AF5D8012BF3D8FFF7FDFE437BC8
:10099000174AB60003FB06F6B6F5805F1660E8D886
:1009A000BDF82C300093042301932B7E0293EA6A56
:1009B000BDF8303003920EAF38460E494FF48052E6
:1009C00012AEFFF757FF0FCE6D460FC50FCE0FC506
:1009D00096E8030085E8030097E80F00FFF790FD15
:1009E000204600F07DF8044B00221A60B3E700BFF8
:1009F0006497FE1F4CEAFE1F6C97FE1F000000006C
:100A00002DE9F84334480C4608F094FC002000F02F
:100A1000DBF814B90020BDE8F883FFF76FFB09F09D
:100A2000CBF88442054602D20520BDE8F883FFF7E3
:100A300065FB0462064609F099F8631B002B274A00
:100A4000B8BF5B420027B3F5FA7F17602EDB0120A9
:100A500000F0BAF8D6F83C80346205EB4805AC42A9
:100A6000D6F838902ED3706909F070FF02460B4615
:100A700017A1D1E900010AF009F90AF00FFA07EE0F
:100A8000900AFCEEE77A17EE900A80451CD9C0EB7D
:100A90000808204609F082F80028C5D0484641469B
:100AA00009F09CF80C4808F051FCB3E7022000F074
:100AB0008BF83846394609F091F808F0DBFC3846E7
:100AC000BDE8F883B946E4E7B846E2E7AFF3008053
:100AD0000000000080842E411092FE1F6C97FE1FC4
:100AE00010B5FFF70BFB0446FFF706FD08F030FCDE
:100AF000204608F069FBD4ED057A074AF8EE677ADC
:100B000080B2FCEEE77A17EE903A013B93428CBF3D
:100B100002230023184310BD5FE3160010B50446FE
:100B2000FFF7ECFA036A0BB9022010BDFFF7E6FAF3
:100B3000016A2046BDE81040FFF762BF51B10128AD
:100B400008B503D0022801D0022008BD09F014F82E
:100B5000002008BD02207047F0B50C4699B0002176
:100B6000FFF74EFF08F0E0FB204608F01DF90028D3
:100B70000CBF00270C27FFF7BFFCA68CA38BC16A14
:100B8000C268257EE06A009604240AAE02950390AE
:100B9000019430460EADFFF76DFE0FCD6C460FC4CD
:100BA0000FCD0FC495E8030084E8030096E80F001A
:100BB000FFF7A6FC384619B0F0BD00BF014B18780E
:100BC000704700BF6897FE1F014B1870704700BF49
:100BD0006897FE1F004870477097FE1F144A5368BD
:100BE000C3F30331C0F303338B4203F1FF3388BFF8
:100BF0005060032B08D8DFE803F0140E0802D37A04
:100C000004210133D37211707047937A03210133A9
:100C1000937211707047537A02210133537211702D
:100C20007047137A01210B4413721170704700BF93
:100C30007097FE1F0D4B1A68824213D0DA68824209
:100C400012D09A69824206D05A6A824208BF0322B1
:100C500002D058687047022202EB420203EB820383
:100C6000586870470022F7E70122F5E77C90FE1FE5
:100C7000034B1878003018BF01204042704700BF76
:100C80007097FE1F024B00225A601A70704700BF17
:100C90007097FE1F014B1868704700BFB890FE1F89
:100CA000014B1860704700BF7C97FE1F024A136813
:100CB00018441060704700BF7C97FE1F10B50B4CA6
:100CC000236884B083B1FFF719FA09F051F8084B93
:100CD00002900022012001A903938DF8042002F064
:100CE000ABFE2368013B236004B010BD7C97FE1F60
:100CF00048B60208024A034B11601870704700BFE3
:100D00008897FE1F8097FE1F024A034B11601870E0
:100D1000704700BF8497FE1F8097FE1F10B5064CDA
:100D2000236843B1054B0A460146187803F05CF886
:100D30002368013B236010BD8497FE1F8097FE1F30
:100D4000F0B5134C236887B0FBB1D0ED007A9FED6E
:100D5000117A114A416807690391C7EE877A034601
:100D600001A9DE691D7A10785A7A9B7A8DF81230C3
:100D7000059701968DF810508DF81120CDED027A6F
:100D800002F08CFF2368013B236007B0F0BD00BF79
:100D90008897FE1F666666408097FE1FF8B504467A
:100DA000FFF73AF90646FFF7A9F9D0ED087A96ED74
:100DB000046AD6ED036ADFED185A9FED185A90EDDC
:100DC000057A736AB26AB768416AA181F8EE677AF8
:100DD00086EE256A003318BF012305462377A261FA
:100DE0006761C6EEA56AC7EE857AB8EE477A84EDEC
:100DF000006AC4ED016AC4ED027A84ED047A08F059
:100E0000DBFE2B6A181AB0FA80F040096077EA6AB4
:100E10002B6B2362E283F8BD66666640002474494A
:100E20002DE9F0439DB08146FFF7F6F80646FFF73F
:100E300065F93446804606F1200E01AF20686168EE
:100E4000A268E3683D460FC5103474452F46F5D1BE
:100E500020686168A26808F1400E07C744460CAFDD
:100E600020686168A268E3683D460FC51034744588
:100E70002F46F5D19FED3D6AD9ED006A99ED017AD3
:100E8000D9ED047A99F81C30D9F81400D9F820204B
:100E9000D9F81850B9F80C40B9F81E100390003377
:100EA00066EE866A27EE067AFCEEE77A18BF012323
:100EB0000CA80A931892CDED056A8DED047ACDED5C
:100EC000117A0B951594179108F076FE99F81D206C
:100ED000012A034640D0D9ED027A9FED257A67EECC
:100EE000877AFCEEE77A17EE900A984238BF1846E8
:100EF0001490FFF775FB01A8FFF792F804460CA8C1
:100F0000FFF7D4F8E04203D000201DB0BDE8F08325
:100F100001AC09AF25460FCDBD4230607160B260B3
:100F2000F3602C4606F11006F4D107CC0CAC30600F
:100F30007160B2601CAE25460FCDB542C8F8000006
:100F4000C8F80410C8F80820C8F80C302C4608F17E
:100F50001008F0D10120D8E707EE900AF8EE677A82
:100F6000FCEEE77A17EE900ABFE700BF66666640C0
:100F70000024744901F0FC030344F0B501F00305BB
:100F80001E691C4FED00F824AC4026EA04041C61E5
:100F9000466F4FEA410E032404FA0EF426EA0404D5
:100FA000B84244671DD0144CA0421AD05768167A34
:100FB000CC0800EB84048F40476001F00701276CE8
:100FC00089000720884027EA00002064206C06FA88
:100FD00001F10143216412781969AA400A431A6198
:100FE000F0BD046E012606FA01F124EA0101016652
:100FF000F1E700BF008E0248008F0248030F03EBA9
:101000004303034A20F0704042F82300704700BFBA
:1010100010440050030F03EB4303034A20F07040D9
:1010200042F82300704700BF14440050030F064AE3
:1010300003EB430320F0704052F82330184214BFF2
:1010400001200020704700BF0C440050034B044AAD
:101050005B69106803F00103D840704700460050F8
:10106000C0FF0320034A936923F48033184390613F
:10107000704700BF00460050034A536A23F44033D0
:1010800018435062704700BF00460050054AD2F82E
:10109000C4301B07FBD4044AD36823F04003184331
:1010A000D06070470040005000430050034A9369ED
:1010B000013823F007030343936170470046005053
:1010C000034AD369013823F03F030343D3617047D8
:1010D00000460050034A536A013823F0FF030343DC
:1010E0005362704700460050014B5860704700BF84
:1010F00000460050030F03EB4303034A20F0704007
:1011000042F82300704700BF44460050030F03EB32
:101110004303034A20F0704042F82300704700BFA9
:1011200048460050030F064A03EB430320F070408B
:1011300052F82330184214BF01200020704700BF2E
:10114000404600500F4B5A6942F001025A615A69F9
:1011500001380006013942F0100240EA01205A61CC
:1011600058615A6942F040025A615A6922F01002ED
:101170005A615A6942F480225A611A695207FCD5B1
:10118000704700BF10470050024B4FF440325A6086
:10119000704700BF00420050024B4FF440329A604B
:1011A000704700BF00420050F0B583B0644C089E09
:1011B000C0B1E06840F4807040F001000129E060B7
:1011C00000F086805E4A9368013E23F07F031E4351
:1011D0009660536843F0010353601368DB07FCD546
:1011E00003B0F0BDE06820F4807020F00100012918
:1011F000E060E7D18DE80C0006F000FC514DA5FB46
:1012000000359DE80C00AD0CAD054D494E4C4F68C6
:101210004E4847F001074F604F6847F010074F6096
:10122000D1F808E003FB05F5571EB5FBF2F50EEA11
:101230000000A4FB054240EA07605C1E930E40EAF2
:101240000420013B40EA03438B604B6843F04003BA
:101250004B604B6823F010034B604B6843F48023D2
:101260004B600868364B4207FBD55A6822F00102F2
:101270005A6019460B68324A13F00104FAD1344B14
:10128000A3FB0513DB0E9E423FD3324F324B6D085A
:10129000A3FB0523DB0E9E421DD3294A9368013E22
:1012A00023F4FE0343EA06469660FFF77FFA3B68A5
:1012B000244AA2FB0332920C322303FB02F20023E6
:1012C000002A8DD000BF01339342FBD103B0F0BDA3
:1012D0004FF0C06599E71A498A68013B22F4FE0283
:1012E00042EA03438B60FFF761FA3B68154AA2FBB1
:1012F0000332920C322303FB02F2002ACDD00023EA
:1013000000BF01339342FBD1C7E79168114F21F42D
:10131000FE01013B41EA03439360FFF747FA3B6854
:10132000084AA2FB0332920C322303FB02F2002A8A
:10133000ACD0234600BF01339342FBD1A6E700BFE8
:101340001047005083DE1B43ABAAAAAAFF8080F09F
:1013500089888888C0FF0320B7600BB67749784A30
:10136000CB68F0B523F48033CB6013680546D8070B
:1013700083B004D4012353601368DB07FCD5714AA2
:101380001368990505D54FF40073936013689F05A2
:10139000FCD4EB79002B40F09180687A6A4AD2F84D
:1013A000C4301B07FBD46949674BCA6822F080022E
:1013B0000243CA60D3F8C440002CFBD1644A297AA6
:1013C0005368012943F48013536000F09D80614EFF
:1013D000FFF7ECF93368604AA2FB0332920C6423F6
:1013E00003FB02F222B1002300BF01339342FBD181
:1013F000524B2C7CDA68A87922F0FF01621E0A4366
:10140000DA601A696C7C22F00101621E0A431A61DB
:101410001A6AAC7C22F00101621E0A431A625A6900
:10142000EC7C22F00101621E0A435A6128BBE97874
:10143000A1B9474A536843F4803343F00203536031
:10144000EB68B3F5803F04D13C4AD36843F4803362
:10145000D36003B0BDE8F040FFF7A8B93C4AA888C4
:10146000536823F4803323F002035360AC786A7826
:101470002B780094FFF798FEE2E7354C374F63680E
:1014800023F4803363607E6806F0B8FA344AA2FB26
:101490000032120D26F47023013A23F0300343EAA0
:1014A00002437B60636823F4003363602246136861
:1014B00003F46073B3F5607FF9D1B8E7224AD2F83C
:1014C000C4301E06FBD421491F4ACB6923F03003E8
:1014D000CB61D2F8C4301C07FBD41C491A4ACB6834
:1014E00043F00803CB60D2F8C4305807FBD4174B45
:1014F000154A08219960D2F8C430002BFBD1134A59
:1015000013681907FCD448E75368124E23F480137C
:101510005360FFF74BF9104A3368A2FB03239A0C80
:10152000642303FB02F31BB100BF01349C42FBD1D7
:10153000074A536843F40023536049E700460050CC
:101540000042005000440050004000500043005052
:1015500010470050C0FF032083DE1B4300470050AC
:101560006BCA5F6B38B5044610200D46FFF7BCFD13
:10157000194B9C421AD0194B9C421ED0184B9C42CE
:1015800022D0184B9C420AD0E36843F48073E36096
:10159000216821F4404141EA8531216038BD12487B
:1015A000FFF7B4FD1048FFF735FDEDE70420FFF726
:1015B000ADFD0420FFF72EFDE6E70820FFF7A6FDAE
:1015C0000820FFF727FDDFE71020FFF79FFD102021
:1015D000FFF720FDD8E700BF00C000400000014039
:1015E00000400140004000480100001070B44B79F9
:1015F0000E79096841611C461D463246C3F340130B
:1016000006F00F0605F00F05C4F300111B051209C3
:10161000436046620562816170BCC262704700BF70
:10162000836A23F4706343EA012383624162704753
:10163000092930B4D0F8A8400DD8094B094D53F80A
:10164000213055F82110DB4323408A401A43C0F86B
:10165000A82030BC70470C216FF44053F4E700BF62
:101660003CB7020814B7020838B5044610200D46EE
:10167000FFF73AFD104B9C4216D0104B9C420AD00B
:10168000E36843F48073E360236823F4404343EA50
:101690008531216038BD4FF48070FFF737FD4FF47E
:1016A0008070FFF7B7FCEBE78020FFF72FFD80206D
:1016B000FFF7B0FCE4E700BF00000240004002403A
:1016C0004B7B70B40D7B012606612C461A46C3F392
:1016D00000130E6846611B0505F00F05240902F092
:1016E0000F0243604562C46202624B6883618B688B
:1016F00083F01403836470BC704700BF02688BB230
:1017000022EA114119430160704700BF436823F08A
:101710000303194341604369012A0CBF43F480630A
:1017200023F4806343617047436823F00C0343EA6A
:1017300081014160436923F4407343EA022242611C
:10174000704700BF436823F4405343EA01314160CE
:10175000704700BF436923F0800343EAC111416130
:10176000704700BF30B444689DF8085024F440240A
:1017700044EA814141604169012A0CBF41F0807116
:1017800021F0807145B921F4000121F0C05141EAF6
:10179000C363436130BC704741F40001F5E700BF0B
:1017A000436823F4404343EA81314160704700BFFE
:1017B000436823F4407343EA01214160704700BF4E
:1017C000436823F4406343EA81214160704700BFCE
:1017D000436843F480334360704700BF436843F479
:1017E0000033436043694AB143F4001301290CBF3D
:1017F00043F4800323F480034361704723F4001310
:10180000F4E700BFF0B503684E7891F802E0CF78B6
:101810000D78517892F802C0147823F4402343EAFB
:10182000864626F4401646EA015121F4000141EAB9
:10183000CE5121F08071D37841EA0C6222F0C0527F
:1018400042EAC76222F0C04242EA437222F0F0024A
:1018500042EA051323F4706343EA04230360F0BDF6
:101860004B1E2DE9F043DBB24FEA43085FFA88F8DC
:1018700008F11009076892F801C09678D47892F8B8
:1018800000E05FFA89F9032505FA09F21531C9B2BA
:1018900027EA02020CFA09FC012742EA0C0C8F40ED
:1018A00008F119085FFA88F28E402CEA07079900C0
:1018B00095403E43C9B226EA050504FA02F20F2319
:1018C0002A438B400EFA01FE22EA030343EA0E0389
:1018D0000360BDE8F08300BF4163704709B1426413
:1018E0007047C263704700BF092930B4D0F8A840E0
:1018F0000DD8094B094D53F8213055F82110DB4321
:1019000023408A401A43C0F8A82030BC70470C21FD
:101910006FF44053F4E700BF64B702088CB70208C5
:101920004B6803658B6843650B68C364704700BFF1
:101930000C4B984210B5044609D00B48FFF7E6FB64
:101940000948FFF767FB0123C4F8983310BD074827
:10195000FFF7DCFB0548FFF75DFB0123C4F8983374
:1019600010BD00BF004001502000002010000020EA
:101970004FF480738B400122C0F8A0338A40D0F826
:10198000A0331A42FBD17047F8B5A14B98420446E8
:101990000E46154653D09F48FFF748FB08B101207B
:1019A000F8BD9C48FFF7BEFB80F00100C0B20028E4
:1019B000F5D0D4F89833002BF1D0D4F8A033F3400D
:1019C000DB0701D50220F8BD582202FB06F2696848
:1019D000A150A318A968EA7ED5F80CE02F8B996076
:1019E0008B49C3F810E0DF612868986142F44062D7
:1019F0008C421A642FD02B8C23B9AB7803F05003A0
:101A0000102B2FD0AB8B23B9AB7803F06003202BC6
:101A100053D0AA7E0123B340013AC4F83833C4F846
:101A20004033C4F84833C4F85033C4F85833072A55
:101A30006CD8DFE802F0959E6D767F8CA7B476486F
:101A4000FFF7F4FA0028AAD17348FFF76BFB80F088
:101A50000100C0B2ABE7012ECDD82A699A646A6949
:101A60001A65C8E76A4B6D49582202FB06429C4240
:101A7000576C95F8223000F0B38003F0030047EA7A
:101A8000C0275764CF684FEA800E0F221B0902FA65
:101A90000EF227EA020203FA0EF31343CB600A693F
:101AA0004FF48073834013430B61582303FB0643B9
:101AB0001A6C22F480621A64A4E7554B57495822E5
:101AC00002FB06429C42576CAB7F71D003F00300CF
:101AD00047EAC0175764CF684FEA800E0F221B09F0
:101AE00002FA0EF227EA020203FA0EF31343CB6066
:101AF0000A694FF48073834013430B61582303FB3F
:101B000006431A6C22F400621A6482E70020F8BDD2
:101B1000582101FB06440020236C43F0404323641A
:101B2000F8BD582101FB06440020A36943F000637F
:101B3000A361F8BD582101FB06440020236C43F04B
:101B400080432364A36943F00063A361F8BD582177
:101B500001FB06440020A36943F08053A361F8BD54
:101B6000582101FB06440020236C43F0004323640A
:101B7000F8BD582101FB06440020236C43F080434C
:101B80002364F8BD582101FB06440020236C43F078
:101B900000432364A36943F08053A361F8BD582137
:101BA00001FB06440020A36943F0C053A361F8BDC4
:101BB00003F0070047EAC01757648F684FEA800EAA
:101BC0000F221B0902FA0EF227EA020203FA0EF3B1
:101BD00013438B600A690123834013430B618DE734
:101BE00003F0070047EAC02757648F684FEA800E6A
:101BF0000F221B0902FA0EF227EA020203FA0EF381
:101C000013438B600A690123834013430B614CE744
:101C1000004001502000002010000020004900502A
:101C200040F201138B40D10748BFC0F81033910731
:101C300048BFC0F81833510748BFC0F82033110718
:101C400048BFC0F82833D20648BFC0F830337047C9
:101C5000034B98420CBF034B034B43F821207047C2
:101C6000004001504CFAFE1F6CFAFE1F582303FB84
:101C700001010A4A4B6CC3F3C311094B904208BFE0
:101C80000122186918BF4FF480728A4020EA0201CD
:101C9000196119690A431A61704700BF0040015079
:101CA000004900505A4A5B49D0F8603330B45A4D6D
:101CB000A8420CBF0D46154613F010021DD0D0F8F7
:101CC0000813C1B1CB0700F1978001231C4600E047
:101CD000013304FA03F20A42FAD09A00A958DBB29F
:101CE000012202FA03F3C0F8583321B1102030BCAE
:101CF00008471A0765D430BC704713F0010420D0A0
:101D0000D0F8E8120029F6D0CC0778D401231C467D
:101D100000E0013304FA03F20A42FAD09A00AA580A
:101D2000DBB2012101FA03F3C0F83833C0F84033C5
:101D3000C0F84833C0F85033002ADCD0084630BC25
:101D4000104713F002021DD113F00404D1D0D0F8D3
:101D5000F8120029CFD0CC0755D401231C4600E04F
:101D6000013304FA03F20A42FAD09A00A958DBB20E
:101D7000012202FA03F3C0F848330029BBD0042043
:101D800030BC0847D0F8F0120029B4D0CB0738D4C3
:101D900001231C4600E0013304FA03F20A42FAD0A0
:101DA0009C002959DBB2012202FA03F3C0F8403348
:101DB000C0F84833C0F8503300299CD0022030BC12
:101DC0000847D0F80013002995D0CB071DD4012374
:101DD0001C4600E0013304FA03F20A42FAD09C00E8
:101DE000DBB22959012202FA03F3C0F8503300296B
:101DF00081D0082030BC0847002213466EE7134606
:101E00008DE72346CDE71346B0E72346E8E700BF5A
:101E10006CFAFE1F4CFAFE1F0040015001F0FC035B
:101E2000184401F0030110B4C9000469F8238B4081
:101E300024EA0303036103695DF8044B8A401343FA
:101E40000361704710B44900446F03238B4024EAB8
:101E500003034367436F5DF8044B8A4013434367B2
:101E6000704700BF38B50D46044601F043FAAB8811
:101E7000184A626303F4F842B2F5F04F23D01B0214
:101E8000E3632968144B994214D9144B994208D939
:101E90004FF4A0614FF0FF320023A163E26423649A
:101EA00038BDE36B43F40033E3632046192201F0AD
:101EB00063FAEDE7E36B23F40033E36320460A2281
:101EC00001F05AFAE4E75A0002F47E42DBB213430F
:101ED000E363D6E703033F07A0860100801A0600EC
:101EE000D0F80831012A41F4806108BF41F00101B6
:101EF00013F0E06F02D0C0F880117047836B1B06AF
:101F0000FCD4C36C43F40053C364C0F88010704722
:101F1000D0F80831012A41F4A06108BF41F0010165
:101F200013F0E06F02D0C0F880117047836B1B067E
:101F3000FCD4C36C43F40053C364C0F880107047F2
:101F4000D0F8083113F0E06F04D04FF4C063C0F84C
:101F500080317047836B1B06FCD4C36C4FF4C062A6
:101F600043F40053C364C0F880207047D0F80831B0
:101F700013F0E06F02D0C0F880117047836B1B062E
:101F8000FCD4C36C43F40053C364C0F880107047A2
:101F9000D0F8083113F0E06F04D04FF40073C0F8AC
:101FA00080317047836B1B06FCD4C36C4FF4007206
:101FB00043F40053C364C0F880207047D0F8083160
:101FC00013F0E06F04D04FF44073C0F880317047D5
:101FD000836B1B06FCD4C36C4FF4407243F4005374
:101FE000C364C0F880207047D0F80C3113F0E06F64
:101FF0000CBF406DD0F81C01C0B2704700206FF3D9
:1020000000006FF3410040F01C006FF3451040F4F6
:10201000E070C0F308007047044BD3F8A421536864
:102020006FF3410353600020704700BF80FAFE1F2A
:10203000044BD3F8A421536843F0020353600020FB
:10204000704700BF80FAFE1F444A017B70B492F8CB
:10205000FE41002004F0010400297CD053681E07D3
:1020600056BF53680123C3F30013012954D9956B5C
:102070003A4E2D0761D4B56B15F0100F18BF012330
:10208000022949D0D56E354E2D0762D4F56E15F074
:10209000100F18BF012303293ED0D2F8A0502F4EB5
:1020A0002D0754D4D6F8A05015F0100F18BF0123F7
:1020B000042931D0D2F8D450284E2D0745D4D6F873
:1020C000D45015F0100F18BF0123052924D0D2F8E1
:1020D0000851224E2D0736D4D6F8085115F0100FAE
:1020E00018BF0123062917D0D2F83C511B4E2D07EB
:1020F00027D4D6F83C5115F0100F18BF012307293B
:102100000AD0D2F87011154D090718D4D5F87011FE
:1021100011F0100F18BF012303F0010392F8FE2104
:10212000C2F3800262F3000064F3410063F38200B3
:10213000012363F3C40070BC70470123A0E70123AF
:10214000EAE70123DBE70123CCE70123BDE7012315
:10215000AEE701239FE70346E0E700BF80FAFE1FDA
:10216000044BD3F8A4311A6811B960F30A121A604B
:102170000020704780FAFE1F00F00F02E9B13423FF
:1021800010F0800F03FB02F31D48C35C03F00F0344
:102190000BBF00EB83036A33D3F8C41150F823104C
:1021A0000B6843F400130B60342303FB020200208E
:1021B000137943F020031371704710B4342310F0E7
:1021C000800F03FB02F30E48C35C03F00F030BBF49
:1021D00000EB83036A33D3F8C44150F823402368EB
:1021E00061F3555343F080532360342303FB020211
:1021F0005DF8044B13796FF345130020137170479A
:1022000080FAFE1F00F00F00342202FB00F20D4B9B
:10221000995C1A4411F0800F51680CBF21F0100135
:1022200021F008015160342202FB003300201A79AA
:10223000D8626FF345121A71186198619862186339
:10224000704700BF80FAFE1FF0B53D4B00F00F0055
:10225000342101FB00F15A1813F801E01479D3F886
:10226000A47114F0040F0EF00F06FD694FF0000189
:102270005AD004F0FB046FF345141471546824F031
:1022800010045460546861F3CF3141F0904124F060
:1022900008044FF0010C1EF0800F6FF3555154608D
:1022A0000CFA06FC2FD006F16A0E6FEA0C0453F804
:1022B0002EE0CEF8001012791FFA84FE0EEA050C0B
:1022C00092076CF30F050DD11E4A126803EB8606C8
:1022D000527BD6F8C4610EEA154E012A31606EF3C6
:1022E0001F4528D0342202FB0030FD618088B3F8FE
:1022F000FC11C0F383100122824021EA0202A3F8FC
:10230000FC210020F0BD127994070FD106F16A027A
:102310006FEA0C041FFA84FE53F822200EEA050C23
:102320006CF30F051160CFE70120F0BD6FEA0C04DC
:102330001FFA84FEC8E77A6B14407C63D2E700BFC3
:1023400080FAFE1F7CFAFE1F034BD3F8A431986875
:10235000C0F30D20704700BF80FAFE1F054B93F8B5
:10236000FE0100F00500A0F10500B0FA80F0400980
:10237000704700BF80FAFE1F0748D0F8A42108B5B7
:10238000536843F00203536000214FF4027209F0D6
:10239000C2F8002008BD00BF80FAFE1F2DE9F04FF3
:1023A0009A4DDFF86C82D5F8A431DFF868A2D3F833
:1023B0001CE0DFF8649200F00F0C342707FB0CF7E9
:1023C000EE1906F108030024EC51746043F8044B45
:1023D00043F8044B43F8044B43F8044B43F8044BD5
:1023E00043F8044B43F8044B43F8044B43F8044BC5
:1023F00043F8044B1C603379E85543F00403337110
:102400007468334662F3D12443F8044F00285C68B3
:102410004FF6C07008BF402060F312045C60EB5DB3
:1024200003F00F03180208F5E06B08EB000400EB63
:102430000B085AF82300306259F823007061F461E8
:10244000C6F80C80E85D00061FD400297FD005EB9C
:1024500083040120D4F8C4613468984044F40044F3
:1024600061F3934480B262F30A0444F080546FF342
:10247000555440EA1E40346060F31F4ED5F8A43135
:102480000020C3F81CE0BDE8F08F03F16A0055F8A6
:102490002060346844F4004461F3934400295FD021
:1024A00062F30A04B5F8FC0144F0805410F001070F
:1024B0006FF3555400F08E80870740F18E804707F8
:1024C00040F18F80070740F19080C70640F191806E
:1024D000870640F19280470640F19380070649D471
:1024E00007274FF0800848EA0000A5F8FC013420D7
:1024F00000FB0CFC05EB0C0967F39954B9F804A038
:10250000DFF8088167F3891AA9F804A00120346074
:10251000984015F80C4080B240EA0E06240666F397
:102520000F0E29D50029A9D108EB8303D3F8C46184
:10253000346844F4004461F39344102A3CD034D905
:10254000202A2ED0402A90D16FF30A048DE703F1A0
:102550006A0055F82060346844F4004461F3934401
:10256000102A31D015D9202A2AD0402A9AD16FF3C7
:102570000A0497E70027BAE708EB8303D3F8C4619E
:10258000346844F4004461F3934400297FF46BAF52
:10259000D3E7082A86D1032755F8206067F30A0499
:1025A00080E7012363F30A045FE7082A7FF45DAF45
:1025B000032363F30A0458E7022363F30A0454E78E
:1025C000012060F30A046DE7022755F8206067F3E5
:1025D0000A0467E74FF0010885E701274FF002087A
:1025E00081E702274FF004087DE703274FF0080832
:1025F00079E704274FF0100875E705274FF020080A
:1026000071E706274FF040086DE700BF80FAFE1F14
:1026100000000020A897FE1F8C97FE1FF8B50E4FF4
:10262000342404FB007406462569A36995420846D4
:10263000E16828BF154619442A4608F061FF23695E
:102640005B1B23610BB1A3692B44342202FB06768A
:102650002846B361F8BD00BF80FAFE1F2DE9F04F98
:10266000074683B069486A4C6A4E6B4DFEF74EFDD3
:102670006648FEF7CFFCFEF787FD684B00211F6020
:102680004FF402724023204633607360B360F360FE
:1026900033617361B3612B606B60AB60EB602B6186
:1026A0006B61AB6108F037FF3B687D7B9A687868A7
:1026B000BE68B5FA85F103F5006A490903F51069AA
:1026C00042F08102C4F80002C4F80462C4F8A4A174
:1026D000C4F8A89161F3451203F5126803F5146C70
:1026E00003F5166E03F5186703F51A6003F51C6B06
:1026F00003F5306103F5326603F5346A03F5366994
:10270000C4F8AC81C4F8B0C1C4F8B4E1C4F8B8717D
:10271000C4F8BC01C4F8C0B1C4F8C411C4F8C8619D
:10272000C4F8CCA1C4F8D09103F5804103F5386812
:1027300003F53A6C03F53C6E03F5805703F5005042
:1027400003F5405B03F5A04603F5C04A03F5E049F5
:10275000C4F8EC11C4F8A031C4F8D481C4F8D8C1CD
:10276000C4F8DCE1C4F8E071C4F8E401C4F8E8B1ED
:10277000C4F8F061C4F8F4A1C4F8F8919A60D9687B
:1027800041F0804141F48071D960D3F8002842F0D3
:1027900003026FF3D752C3F80028D3F804280021AE
:1027A00042F00202C3F804280091009A42F020028D
:1027B0000092009921F4F86141F480610091009A3F
:1027C0001A611A690092009AC2F34012002AF8D1E5
:1027D0000192019A42F010020192019A1A611A695B
:1027E00001920198C0F300100028F8D10C490D4A5D
:1027F0009861012D18BF0A4642F440224FF0FF3184
:1028000059619A6103B0BDE8F08F00BF80000020DD
:1028100080FAFE1F8C97FE1FA897FE1F7CFAFE1FF2
:102820000E3C00C01E3C00C0F0B400F00F00342489
:10283000334E04FB00F4321982B05368C3F3001323
:10284000002B36D115796D0733D5956801955569FB
:10285000D768D362A94228BF2946019D1361C5F3F9
:1028600012058D4228BF0D46116395625762345D93
:10287000240722D0002D37D1012262F3DC43214A04
:102880001268527B2ABB342202FB00F03118325C02
:10289000496A02F00F0206EB8202D2F8C4215161AC
:1028A00013611368002043F00443136002B0F0BCCE
:1028B0007047012002B0F0BC7047012262F3D4439C
:1028C000104A1268527B43F0C04361F30603002AAA
:1028D000D9D0342202FB00F0325C02F00F0206EB8A
:1028E0008202D2F8C421DBE75268C2F3C6214A1E35
:1028F0002A44B2FBF1F262F3DC4365F31203BEE754
:1029000080FAFE1F7CFAFE1F2DE9F84300F00F0746
:102910003426394D06FB07F6AC1923795B0753D5EE
:102920006368180757D4236AE0699A4228BF1A4699
:10293000914608F0E5FD6368D4F81CC0C4F824C0D3
:1029400043F0080300216360E162C4F83090A85DA1
:10295000A36800F00F0000F16A0EC3F3120255F8ED
:102960002E804A4528BF4A46D8F800E0A262AAB3A2
:10297000AB5D1B072BD06368C3F3C624631E9BB2F9
:1029800013FA82F3C2F3120293FBF4F3C3F30903C5
:102990001A4C2468647B62F3120163F3DC410CBBC4
:1029A000C8F814C0342303FB07F7EA19EB5D106B7A
:1029B00003F00F036A334EF0044E55F823301961CB
:1029C000C3F800E0BDE8F8830120BDE8F883C2F356
:1029D00012020123DCE70020BDE8F883012363F342
:1029E000DC41DFE7012CDDD1D5F8A421536B844015
:1029F0001C435463D6E700BF80FAFE1F7CFAFE1F1B
:102A00002DE9F04FB94CD4F8A0319D695A698FB0C7
:102A100002EA050A5FFA8AF60190300700F1EB82BC
:102A2000019A527B012A00F0F382CAF30725690755
:102A300044BF4FF480625A612A0700F1D2824FEA04
:102A40001A66370600F1C382700600F1B082E9060B
:102A500000F1F181AA0600F1D3811AF4802F40F031
:102A600005811AF4002F18D11AF0040F02D10FB00B
:102A7000BDE8F08F5D6868070BD594F8FE31D4F897
:102A800000226FF3820384F8FE3101209047D4F8CE
:102A9000A0315D600FB0BDE8F08FD4F8A421936938
:102AA000D76952690292C3F30F43002213EA174712
:102AB000039200F09780DDF804B0CDF810A0164620
:102AC0003B4615464FF0340CB846DF0740F1818095
:102AD00006F1700904EB8902029952689BF80D30E7
:102AE00097680F405FFA87FA002B40F081801169E8
:102AF00003911AF0080F21D07C4A0CFB0620039AA0
:102B00000179C2F34172D20063F34511C2F1180298
:102B1000017102610CFB0643CDF804C05A6822F033
:102B200010025A600020D4F804320146984704EBA2
:102B3000890308215A68DDF804C091601AF0010F7A
:102B400046D09BF80D30002B63D00CFB0643996AEE
:102B50000CFB06431A6B8A4272D09868C1EB020ED6
:102B6000C0F3120086450CFB06FE88BF091804EB73
:102B70000E0098BF1146816214F80EE01EF00F0F90
:102B80004FF0000300F1280A40F0AE82012161F30A
:102B9000D44343F0C04362F30603554A1268527BA4
:102BA0000CFB06F6002A40F0A682A25D02F00F029E
:102BB000A11904EB8202486AD2F8C41148610B6182
:102BC0000B6804EB890943F00443D9F804200B6037
:102BD00097600135EDB258FA05F32E467FF475AFD4
:102BE000DDF810A0D4F8A0314FF400225A613BE781
:102BF0001AF0080FA2D03D4A0CFB0621012B0A79DE
:102C00006FF345120A7185D10B69CA6A13440B61CF
:102C100080E70CFB0640039BC26A816AC3F3120380
:102C2000C2EB010EC3EB0E0302EB030E426AC0F8C7
:102C30002CE0134443620CFB06431A6B8A428CD18E
:102C4000CDF804C05A68D96A196122F010025A609E
:102C5000264B2846D3F8043201219847234BDDF850
:102C600004C003EB8909D9F80420B1E7D4F8A431F2
:102C70009A691B69039397B2002F61D00026B6466C
:102C80003B464FF0340BCDF810A0B946DB074FD5CB
:102C90000EF16A030BFB0EF00293D4F8A4A154F8D2
:102CA000233014F800809D68DAF83410019A039FED
:102CB000527B08F00F0C21FA0CF1C901C9B239435B
:102CC00020440D40B2B9EF071A6930D522F06042B6
:102CD000002A00F01882816A0BFB0E42136B8B42B4
:102CE00033D1536823F00803536017E080FAFE1FC6
:102CF0007CFAFE1F012A02D1290600F12A82E90787
:102D000015D50BFB0E40036B816A8B421DD14368C6
:102D1000012A23F00803436000F07382D4F80432E0
:102D200046F0800002219847029B54F823309D60B2
:102D30000136F6B259FA06F3B646A7D1DDF810A06F
:102D4000D4F8A03100225A618BE60BFB0EF2A018DA
:102D5000A25C8068C1EB0308C0F3120C02F00F0202
:102D6000E045069202F16A0228BF01EB0C030BFB5F
:102D70000EFC54F82220059204EB0C0112688B62C1
:102D8000002001F12808002B00F0DD8114F80CC0B0
:102D90001CF00F0F00F0CF814968D8F80470C1F320
:102DA000C62C0CF1FF38D91B0B461FFA88F818FA0D
:102DB00081F1C3F3120391FBFCFCCCF3090CC24973
:102DC0000968497B63F312006CF3DC40002940F092
:102DD0000D820BFB0E4305995B6A4B610BFB0EFEEC
:102DE000029B14F80E1054F8233001F00F016A31E1
:102DF00042F0044254F8211008610A609D6097E790
:102E0000D4F8A81194F8FE210B68D4F800526FF39F
:102E10000A0342F005020B60022084F8FE21A84755
:102E2000D4F8A031DA68092161F38D224FF4005102
:102E3000DA60596111E6D4F8A411D4F8C4914A6853
:102E4000D4F8D471D4F8D861D4F8DC0142F001028E
:102E500004F5E47898E800514A60D9F8002042F07F
:102E600000626FF35552C9F80020D8F80020DFF84F
:102E7000689242F000626FF35552C8F80020DCF807
:102E80000020DFF8588242F000626FF35552CCF810
:102E90000020DEF80020DFF848C242F000626FF345
:102EA0005552CEF800203A68DFF838E242F000626E
:102EB0006FF355523A603268844F42F000626FF30C
:102EC000555232600268824E42F000626FF35552F2
:102ED000026040204FF48012586260F30F0200201D
:102EE0009A62C3F80491C3F80881C3F80CC1C3F80F
:102EF00010E1C3F81471C3F818610D900D9A42F0F7
:102F000020020D920D9A22F4F86242F480620D9232
:102F10000D9A1A611A690D920D9AC2F34012002A95
:102F2000F8D10C920C9A42F020020C920C9A22F4E6
:102F3000F8620C920C9A1A611A690C920C9AC2F3FC
:102F40004012002AF8D10B920B9A42F010020B9219
:102F50000B9A1A611A690B920B9AC2F30012002A9B
:102F6000F8D14FF00113CB614B69019843F00F0387
:102F7000407B4B610B6943F00F030B610B68012829
:102F800062F30A130B6008BF4A636368D4F8002237
:102F900023F010036360636823F008036360042078
:102FA0009047D4F8A0314FF480525A6152E594F81A
:102FB000FE31D4F8002243F0040384F8FE310020EF
:102FC0009047D4F8A0314FF080425A613FE5D4F8E1
:102FD000003208209847D4F8A0314FF000425A61DF
:102FE00032E5D4F8003206209847D4F8A0314FF4E7
:102FF00000625A6123E5D4F8003209209847D4F8DA
:10300000A03108225A61019A527B012A7FF40DAD4A
:10301000F1067FF50AAD6FF304159D611A6AC2F3DC
:103020004341022900F0FF80062949D102F00F0731
:1030300004EB8701C2F30A12D1F8C41125480968CC
:10304000D4F8E0810E043BD5342101FB070EDEF8F5
:103050002400A8B35FEA920C0BD04FEA8C0C00213D
:1030600001E0DEF82400D8F80060465004316145E4
:10307000F7D162451BD0D8F8008018D94FF0340E34
:1030800063460EFB074E00264FF0FF0909FA06F1D2
:1030900001EA0801DEF82400DFF838C0F140C1542D
:1030A00001339A4206F10806F0D1DCF8A03134264B
:1030B00006FB0746F16A706A11440244F1627262CB
:1030C00045F010059D61B0E47CFAFE1F90001000F1
:1030D000A000100080FAFE1F5000100060001000D9
:1030E0007000100080001000A9B961F312030122E2
:1030F00062F3DC4351E5A25D02F00F0204EB8202B1
:10310000D2F8C4115BE5C26A816A436AC1628A1A55
:103110001A444262E0E54268DAF80400C2F3C622CB
:10312000091A02F1FF3E8E44BEFBF2F262F3DC4369
:1031300061F3120331E5D8F804105B1AC3F31203EC
:103140004FF0010C3BE663F31200012363F3DC4014
:1031500044E608F00F0808F16A015E4F57F82110A5
:10316000C76AD1F818C05B49069708F1780851F88A
:1031700028100791816AC91B059151D001F10308FC
:103180001FFA8CFC4FEA9808E04544D80BFB0E412F
:10319000B8F1000F00F09B800691CDF82490496AA9
:1031A000DDF81CC0029FDDF81890CDF820E000206B
:1031B0000968CCF80010D9F82410013004314045DA
:1031C000C9F82410F4D10698DDF820E0C06ADDF8D3
:1031D0002490029706900746BC46059F0BFB0E40C5
:1031E000BC443944C0F82CC0416288E501297FF411
:1031F000F5AD069FDAF83430B9401943CAF83410F7
:10320000ECE5344BD3F8A4114B6B02FA0EF223EA2F
:1032100002024A6382E54FEA8C010591E046B5E778
:10322000416A069FD8E702F00F0704EB8701C2F35B
:103230000A10D1F8C421D4F8E0C11268254912045B
:103240007FF53EAF342202FB071EDEF82410002972
:103250003FF436AF5FEA90080FD04FEA88080022AB
:1032600001E0DEF82410DCF800608E5004324245A4
:10327000F7D1342202FB0742516A40451ED0DCF8E8
:1032800000C01BD94FF0340E43460EFB074E0026FC
:103290004FF0FF0801E0DEF8241008FA06F202EA17
:1032A0000C02F240CA540133984206F10806F2D1EA
:1032B000342202FB0742D4F8A031516A342202FBC7
:1032C00007470144FA6A79620244FA62F8E6496AF9
:1032D000069F81E780FAFE1F10B5054C2046FDF7DA
:1032E0008DFE2046FDF706FFBDE81040FDF754BFF8
:1032F000800000201B4B984210B504461BD003F5FC
:103300000073984217D0184B984224D003F50073ED
:10331000984220D0154B984216D003F5007398427E
:1033200012D00323E360E368DB07FCD5236C23F0B2
:103330000F03236410BD4FF40060FDF7E7FE4FF468
:103340000060FDF767FEECE70948FDF7DFFE08487F
:10335000FDF760FEE5E70748FDF7D8FE0548FDF7F5
:1033600059FEDEE70000034000000248004002482A
:103370000001001080000010632900D90AB9012063
:1033800070472DE9F04117460C460646FDF75EFEF4
:10339000184DA5FB0032A5FB043552096D0940F21A
:1033A000FF3E4FF0010C07FB05F5C2EB8221704692
:1033B000E046B1FBF5F39C0AB4F5806FC3F3090353
:1033C000A1EB020104D2734502D29E46A446804678
:1033D0000138EED148F4004333617269064B013F76
:1033E00013400CF1FF3C43EA872343EA0C4373612B
:1033F000BDE8F0811F85EB51EF8000FC38B50D462C
:1034000004460120FDF782FE0120FDF703FE6B69F3
:1034100023606B6843F40043C4F88030AB68C4F8A1
:10342000A030EB68C4F8A4302B69C4F880322B6854
:10343000C4F8B83038BD00BF2AB1064A28330A4064
:1034400040F823207047283340F21F720A4040F8AA
:103450002320704700001F07D0F880300C4943F04C
:103460000043C0F8803001F1100051F8042BD2F86D
:10347000803013F4403F02D18142F6D17047D2F838
:103480008030DB00F8D5D2F88030DB00F7D4F3E7EA
:10349000F4B702082DE9F04F4B79D0F8A05091F81D
:1034A00004A0CE78CC7A91F807B091F8069091F804
:1034B00009800A7A91F80AC0B1F802E00F7825F481
:1034C000E06503F0070345EA032323F01F030AF036
:1034D0001F0A43EA0A05C0F8A050D0F8A0300BF04C
:1034E000070B23F0E06343EA0B6323F4F81309F0BE
:1034F0001F0543EA0545C0F8A050D0F8A43008F0F5
:10350000070823F4E06343EA082302F01F0223F0D4
:103510001F031343C0F8A430D0F8A45004F00702EE
:1035200025F0E06444EA026424F4F8140CF01F026D
:1035300044EA0242C0F8A4200B69C0F88030CEF300
:10354000090E07F00707CB68C0F8B83047EA0E4706
:10355000C0F8F071D0F8F021C6F3001342F0004239
:1035600042EA0372C6F3810342EA8362C6F3401360
:1035700042EA4372C6F3801342EA8373C0F8F03123
:10358000BDE8F08FF0B4BAB1C1F304421025C1F325
:1035900002616FF4F81618246FF0E06700EB830304
:1035A000A140D3F8A0403C402143AA403140114300
:1035B000C3F8A010F0BC704715466FF01F0601F06D
:1035C0001F020824C1F302216FF4E067E6E700BFA1
:1035D000D0F8803023F003031943C0F880107047FF
:1035E000D0F8C0308A4288BF013123F00303194369
:1035F000C0F8C010704700BFD0F8C03023F00303FC
:10360000C0F8C030704700BF0E4B984210D003F591
:103610008063984211D003F5806398420FD0D0F8B0
:10362000C020033101238B401343C0F8C0307047E2
:103630000123994238BF0131F1E70223F9E703235F
:10364000F7E700BF004800408A4238BF0132D0F897
:10365000C0100332012393400B43C0F8C0307047C1
:10366000D0F884300A7823F00073C0F88430D0F8A2
:10367000843010B423F03003C2F3810412F003024B
:1036800043EA041320D043F08003C0F884304B6831
:1036900043F0802343F40003C0F820318B68022AF2
:1036A00043F00103C0F8243105D1D0F8243143F4AC
:1036B0008033C0F82431D0F884305DF8044B43F0F7
:1036C0000073C0F884307047C0F884304B6843F012
:1036D000802343F40003C0F820318B6843F00103DA
:1036E000C0F82431E7E700BFD0F8C03123F0F00381
:1036F00043EA0111C0F8C011704700BFD0F8843010
:103700000A7823F08073C0F88430D0F8843010B485
:1037100023F00303C2F3810412F0030243EA04031B
:1037200020D043F00803C0F884304B6843F0802376
:1037300043F40003C0F800318B68022A43F0010310
:10374000C0F8043105D1D0F8043143F48033C0F817
:103750000431D0F884305DF8044B43F08073C0F836
:1037600084307047C0F884304B6843F0802343F4C2
:103770000003C0F800318B6843F00103C0F8043146
:10378000E7E700BFD0F8C03123F00F031943C0F8BA
:10379000C011704730B4137BD0F8885001248C409E
:1037A00025EA04048B402343C0F88830537B1C0671
:1037B0000AD4012923D0C9B10025D0F8B0405BB2AA
:1037C000AB402343C0F8B030D0F8C840536823431F
:1037D000C0F8C830D0F8D04093682343C0F8D03048
:1037E0008031136840F8213030BC7047D0F8B030D9
:1037F00023F01F03C0F8B030537B0D46DDE7D0F84F
:10380000B03023F4F853C0F8B030537B0825D4E728
:10381000072910B410D901F180410839D0F8B4411A
:1038200089000F238B4024EA03038A401A43C0F81F
:10383000B4215DF8044B7047D0F8B04189000F23E4
:103840008B4024EA03038A401A43C0F8B0215DF894
:10385000044B70472DE9F8430020FDF7BBF9D0F881
:10386000049006781FFA89F8002E40F091805E4D92
:103870005E4F284631464FF4007207F04CFE4FEA87
:1038800018284A2309246E7085F802906E7285F814
:1038900003802B702C72564A07F1080302F10801CD
:1038A000B94288BF934294BF012300230A2C94BFDE
:1038B000002303F00103002B00F08A8047EA020393
:1038C0005B0740F08580A4F1080ECEF3CC0E0EF11C
:1038D000010E4FEACE039BB2A7F108084FF0000C8F
:1038E000F8E902010CF1010C1FFA8CF9CE45E2E86F
:1038F0000201F5D89C4203F10A0047D0591C89B255
:10390000FA5C2A54A142384A03F10B053ED2981CB6
:1039100080B2795C5155844203F10C0536D9D91C2B
:1039200089B2385C50558C4203F10D052ED9181D13
:1039300080B2795C5155844203F10E0526D9591D98
:1039400089B2385C50558C4203F10F051ED9981D81
:10395000795C515581B28C4203F1100316D9795C20
:10396000D154013C0B34A4B2224B2146187800F00C
:103970002FFF21461C4800F03FFF00F03FFF042EC0
:1039800001D0FDF77FF90020BDE8F883013CE9E7AD
:103990004846FDF74FF9074607F0C5FD124D0130C7
:1039A00084B24FF400722846002107F0B4FD4FEABC
:1039B0001828220A4A232C726E7085F8029085F826
:1039C00003806A722B70002C7FF465AF0A24CBE76A
:1039D000013C094B17FA84F1013F17F8012F03F856
:1039E000012F8F42F9D1BDE7C897FE1F04B8020826
:1039F000D297FE1FC497FE1FD197FE1F08B5034B39
:103A00001B780BB1FFF726FF002008BDC497FE1FEF
:103A100008B50B78064A4B2B107002D04FF6FF709A
:103A200008BD0028FCD0FFF715FF002008BD00BF2F
:103A3000C497FE1F704700BF2DE9F0432F4BC1B064
:103A4000D32205468DF803008DF800201E7800284B
:103A500050D00F464FF00008042303F101091BB2B8
:103A60001FFA89F939780DF803107A680FFA89F18D
:103A7000684600F007FFBC6848441FFA80F92046FA
:103A800007F051FD09F1010E0FFA89F91FFA8EFEB8
:103A900010F0FF0C0DF809001FFA8EF30FD020462E
:103AA00004EB0C0110F8014B1AB2884203F1010338
:103AB0000DF802409BB2F5D10EEB0C0083B208F179
:103AC0000108A84507F10C07C7D19CB2250ADBB253
:103AD000304621468DF801308DF8025000F078FE16
:103AE0006846214600F088FE00F088FE002041B0C4
:103AF000BDE8F08304231C46EAE700BFC899FE1F17
:103B0000F0B50B78584CD03B85B005462070142B8F
:103B10000FD8DFE803F0120E390E0E0E0E0E0E0E49
:103B20000E0E0E0E0E0E490E7B0E0B00012A00F03B
:103B300089804FF6FF7005B0F0BD012AF9D1002150
:103B40004FF40072494807F0E6FCFDF7A3F800289F
:103B500000F08880454C4368D1222270026803211E
:103B6000204600F0FFFEC31C9EB2320A6370A270B2
:103B70002846314600F02CFE2046314600F03CFE3F
:103B800000F03CFE0020D6E7052AD2D1CB780C7994
:103B90004A7888781B0443EA0463134343EA00200D
:103BA000FDF77EF80020C6E7012AC2D13048002187
:103BB000C822074607F0AFFCFCF722FA01380328B9
:103BC00028BF00202B4B00EB800003EB8000E1239B
:103BD0003B70002402237B708268BC70032138464E
:103BE00000F05EFEC61C244A3146384600F058FEFE
:103BF000304486B23146284600F0EAFD3846314668
:103C000000F0FAFD00F0FAFD204694E7012A90D179
:103C10001A4E01920024348134607460FCF7D4FCA5
:103C2000FCF7A6FC019AE32328461146337000F006
:103C3000CFFD019A3046114600F0DEFD00F0DEFDBA
:103C4000204678E70E4E0192E5210024346074602E
:103C500031703481FCF798FCFCF770FC019A28461F
:103C60001146E4E702A875E7C899FE1FCC99FE1F2C
:103C7000CC9BFE1FBC90FE1F10B80208949CFE1F38
:103C8000A09CFE1F142A00D0704708B50120FDF744
:103C90000DF8BDE80840FDF711B800BF2DE9F0416F
:103CA000264E274D33686B7088461C0E1A0C362141
:103CB0001B0A2C712970EA70AB70D8F800306B7158
:103CC000190E1A0C1B0AAB712972EA710746D8F853
:103CD00004200921284600F0D5FD093084B221B224
:103CE000D8F80820284600F0CDFD204480B203B269
:103CF00098F80C20EA54431C1BB298F80D20EA54A3
:103D0000831C1BB298F80E20EA54033084B2D8F812
:103D1000102021B2284600F0B5FD204484B221468F
:103D2000384600F055FD2846214600F065FD00F0BC
:103D300065FD336801333360BDE8F081D4B1FE1F07
:103D4000AC9EFE1FF8B5274D31232B700F4606465B
:103D50000A682846012100F095FD441C21467A6836
:103D6000284600F08FFD04442146BA68284600F03A
:103D700089FDBB8920442A18190A5170841C2B54D0
:103D80003A692146284600F07DFD044421467A69BF
:103D9000284600F077FD04442146BA69284600F021
:103DA00071FD20443B7F2B542B187A7F5A70FA8B7D
:103DB0009A70120ADA703A6A1A71083084B2170ED1
:103DC0003046160C120A2146DF719E715A7100F0BE
:103DD000FFFC2846214600F00FFDBDE8F84000F04A
:103DE0000DBD00BFD4A0FE1F2DE9F04F91B092F899
:103DF00028308A8805924A8808924D6B059A01936B
:103E00000C4608998DF82D50013B01FB02F2012B65
:103E100002EB420294BF01270227D10007FB01F108
:103E20002A0A4FEA156C4FEA154E059B089DDDF8EE
:103E30002080DDF814A08DF83570C9084FF04709CF
:103E4000123100261B0A012789B29DF804B08DF8B3
:103E50002C902D0A4FF00C098DF82E208DF8323061
:103E60008DF830C08DF82FE08DF83B708DF831A0C3
:103E70008DF836808DF83AB08DF834608DF8336067
:103E80008DF839608DF838608DF83D608DF83750C9
:103E90008DF83C9000F09CFC12210BA800F0ACFCCB
:103EA00008FA07F1434603915246D900E76A0791A1
:103EB000002A57D0A8F102035B08013303EB430348
:103EC00006939BB24146099308F0010302932B4CE1
:103ED0008B0004370493B94600250123019AAB40B7
:103EE0001A4236D0029BC8464FF0020A8BB14FF6F9
:103EF000FF714FF0FF3B039B2046984400F07CFC91
:103F0000BAF1010F5C4424D0029B4FF0010A002B50
:103F1000EDD1089B012B2CD9069B414604EB030CE9
:103F2000224631F8020C31F8043C43EA0033180E03
:103F3000D0704FEA134E180A82F802E0507002F86F
:103F4000033B624501F10401EBD1069B09999B46B5
:103F5000D1E7049B994455B1079B1F44059B01364B
:103F6000B342B8D100F04AFC11B0BDE8F08F012592
:103F7000B3E7029B19469B46BDE700BFD4A1FE1FD5
:103F80002DE9F04F04460878303889B016281BD840
:103F9000DFE810F01F001A002A001A00F300810168
:103FA0001A001A001A001A001A001A001A001A0041
:103FB0001A001A009A011A001A001A001A001A00B0
:103FC0001700052A00F0CC814FF6FF7009B0BDE85C
:103FD000F08F012AF8D1B948FCF7E0FE2046B74936
:103FE000FFF7B0FE0020F1E7012AEDD1B44DB54F47
:103FF00000214FF40072284607F08DFA33232B700E
:104000003A680321284600F03DFCC61C31467A6818
:10401000284600F037FC06443146BA68284600F0CE
:1040200031FC06443146FA68284600F02BFC064471
:1040300031463A69284600F025FC064431467A6943
:10404000284600F01FFCB7F81CC0B7F81EE0398BFB
:10405000B7F81A803A6A30442B1800F109064FF07D
:10406000040905F800904FEA1C2A4FEA1E29019620
:104070004FEA112B4FEA182683F805C083F807E0B2
:10408000597083F802B083F803801E7183F806A08C
:1040900083F808900199284600F0F4FB019B7A6AA6
:1040A0000344194628461E4600F0ECFB0644314600
:1040B000BA6A284600F0E6FB06443146FA6A28460A
:1040C00000F0E0FB064431463A6B284600F0DAFB8C
:1040D000064431467A6B284600F0D4FBD7F838C046
:1040E000D7F83CE0396C3318EA187E6C03F11008FD
:1040F0004FEA1C6A4FEA1C4982F803A082F802903A
:104100001FFA88F720464FEA1E6B4FEA1C244FEA3D
:104110001E4A4FEA1E29547005F803C00C0E82F89F
:1041200004E082F807B082F806A082F805900B0C34
:104130004FEA112C4FEA166E4FEA164B4FEA162A39
:104140004FEA172911721673D472937282F809C05C
:1041500082F80FE082F80EB082F80DA0394685F89B
:10416000018085F8029000F033FB2846394600F0C4
:1041700043FB00F043FB002028E7232A7FF424AF11
:104180004A7C91F81280CE7B887991F810E04B4DF3
:104190000390120442EA0862887A91F815C00793E6
:1041A00032434B78049042EA0E2E887B4A7991F88C
:1041B00004B0CF7891F808A0CE7991F80C9091F8DE
:1041C0000980019302928B78CA7A0590487BC5F8E2
:1041D00010E091F816E006904FEA0C4C4CEA0E6E97
:1041E00091F813C04EEA0C0E91F814C012044EEA76
:1041F0000C2EC5F814E042EA096C91F819E0019A16
:10420000887E3F0447EA0B674FEA0E4E1743360499
:10421000029A4EEA006046EA0A6691F817E01643F1
:104220004CEA080291F818C040EA0E0040EA0C2C53
:1042300047EA03270498039BC5F818C042EA002EFA
:1042400046EA03260598069B6E6043EA0022AA818F
:10425000CA7E2A770A7F6A774E7FC5F808E091F810
:104260001EE091F8210091F822202F6046EA0E26E8
:10427000EE8391F82070C97F000440EA02620A438D
:1042800042EA072228462A62FCF7CAFD079B00285B
:1042900075D10C209AE6052A7FF496AECB78087982
:1042A0004A7889781B0443EA00631343204643EAB3
:1042B0000121FCF71FFD002088E600BF88FCFE1FDF
:1042C000AC9CFE1F60B60208012A7FF47DAEFBF7AE
:1042D00097FE0138032828BF002000EB80008300F0
:1042E0002D4D2E4FEA587A701D44110E130A95F881
:1042F00005C095F806E0EE7995F80480BB704FEAAA
:1043000012494FF0410A87F806C087F807E0AA680B
:1043100039713E720921384687F800A087F803906A
:1043200087F8058000F0BCFA093086B23146EA68A9
:10433000384600F0B5FA304486B22A69314638462C
:1043400000F0AEFA304485B22946204600F040FA2B
:104350003846294600F050FA00F050FA002035E6C1
:10436000CB7808794A7889781B0443EA00631343C1
:10437000204643EA0121FCF7C7FC002026E6204640
:1043800029460193FFF7DEFC019B1421184600F03B
:1043900047FA00201AE600BFBC90FE1FD49EFE1F05
:1043A000704700BF30B5174C83B0A189A06804F0F6
:1043B00075FAA268A389216A02441B1A0546A26005
:1043C000A381E9B18847D5B92369984217D36179A8
:1043D000B1B1626A1344984212D3042908D002A8EA
:1043E000094B40F8043D042104F056FA04F066FA43
:1043F0000023064A63710423A260A38100E02061C8
:1044000003B030BDD8B1FE1F5B000100ECB1FE1F50
:1044100038B50F4C049D6362002322622060217135
:10442000A5626371A360A38182B19047094D2061A9
:104430000423094AE5614FF400700021E0626171D4
:10444000A260A381BDE8384004F024BA1046EDE72D
:10445000D8B1FE1F08B2FE1FECB1FE1F2DE9F041DE
:10446000A14C6379042B92B02BD0FFF79BFF6379AB
:10447000032B24D8DFE803F007028970A38953B126
:1044800012B0BDE8F081A389974A032BF8D8012127
:104490005171002BF4D1237D934E607DE17DA27D8F
:1044A0005A2B78D0914B12AD45F8403D0423284655
:1044B0001946737104F0F0F904F000FA7379042BD3
:1044C000DED1894E02AD402740212846A560A78154
:1044D00004F0E4F9A389A268216A1B1A9BB2024482
:1044E0008046A381A26011B38847B8F1000F21D1A3
:1044F0003369984219D3717909B3726A13449842A7
:104500001DD3042908D012A8794B40F8443D04215A
:1045100004F0C2F904F0D2F90023764A637104234F
:10452000A260A38112B0BDE8F081B3893061002B95
:10453000CAD0A5E7B3893061002BC5D0A0E7A38915
:10454000002BC1D09CE703F11800022103229860E0
:1045500099815A71FFF726FFA389634E002BADD1D5
:10456000717E337E777DF07DB27D43EA01234EF28A
:10457000DB018B421BD012AD5F4B95E7F169B28135
:104580000223B1607371FFF70DFFA289564B002A19
:10459000D9D05B7993E73379834229D352EA012258
:1045A0004AD0F36A9A42E9D912AD544B7CE742EA09
:1045B000002207B33568F16914206FF0130310FB74
:1045C00007332B4438469D68DB68A8475B220346C7
:1045D000050A042102A88DF80A308DF808208DF80C
:1045E0000B508DF8097004F057F904F067F993E760
:1045F00012AD434B58E7F36993F80080B8F1010F0F
:1046000000F082801BD3B8F1020F02D1012A00F022
:10461000CC80FF2702AD5B220023284604218DF8C1
:1046200008208DF809308DF80B708DF80A7004F0B1
:1046300033F904F043F96FE712AD324B34E7012A46
:10464000E7D132798DF8052002EB42035B0002339B
:104650009BB202AD4FEA132C4FF05A0E28460421AC
:104660008DF80A308DF80BC08DF808E08DF80470D5
:104670008DF8097004F010F901A8022104F00CF97A
:1046800033790BB33AB2216802EB8202013751F859
:1046900022308DF8083001EB8202180E190C1B0A2B
:1046A0008DF80B008DF80A108DF8093093888DF87D
:1046B0000C3028461B0A06218DF80D3004F0ECF86A
:1046C0002379FFB2BB42DDD8E022DB23284602215A
:1046D0008DF809208DF80830474604F0DDF804F025
:1046E000EDF805F019FC96E7D8B1FE1F5B0002005B
:1046F0005B000100ECB1FE1F5B0007005B000600E1
:104700005B0003005B000500012A82D1DFF8BC805A
:104710008DF80820B8F80430B8F80600B8F808108A
:104720008DF80930060A1B0AD8F800208DF80C60B5
:104730000D0A8DF80A308DF80B008DF80D108DF8EC
:104740000E5013783E4623B10136B6B2935D002B6E
:10475000FAD106F108039BB24FEA132C4FF05A0E20
:10476000002201A8042102AD8DF806308DF807C0A3
:104770008DF804E08DF8052004F08EF82846072116
:1047800004F08AF8711CD8F8000089B204F084F8AB
:10479000E022DB2301A802218DF805208DF80430EA
:1047A00004F07AF804F08AF835E7B36A002B3FF496
:1047B00030AF12AD5B2345F8403D0421284604F09C
:1047C0006BF804F07BF8B36A984724E71C96FE1F49
:1047D00010B582B00B460C0A8DF805005A2201A8CC
:1047E00004218DF806308DF807408DF8042004F080
:1047F00053F802B010BD00BF04F04EB800B583B04E
:1048000002A8DB2300F8043D0221E0238DF80530E7
:1048100004F042F804F052F803B05DF804FB00BF66
:104820002DE9F843164D95F804E0BEF1000F1CD0B9
:10483000894606460124A84606E0DB68B34216D046
:1048400001347245E4B210D2631E2A68DBB203EB76
:10485000830302EB830322461F69002FEDD122461A
:10486000724504F10104E4B2EED3BDE8F8834A4690
:1048700020463146B84798F804E02246E0E700BFFA
:10488000D8B1FE1F10B483B002AB044643F8042D28
:1048900018686050042003B05DF8044B704700BFF7
:1048A000F8B506460D461446002A56D0104606F0C6
:1048B0003AFE705510F0FF0006EB050350D06A1C5D
:1048C000324444EA0207691D17F0030F06EB0107A3
:1048D00004F104010CBF4FF0010E4FF0000EBC427A
:1048E00038BF8A422CBF012100211EEA010F29D0C6
:1048F000092827D9031F9B0801339900A4F1040E4E
:10490000002701375EF804CF42F804CBBB42F8D849
:10491000884201F1010213D0B71814F823E007F818
:1049200005E0824201F102030ADA3344A25C5A55DF
:104930008B1C984201F1030102DD3144E35C4B55CD
:104940000130F8BD05442E44013C14F8012F03F852
:10495000012FB342F9D10130F8BD72550120F8BDE5
:104960000120F8BD2DE9F04F814683B088464254BE
:10497000002A77D001269A4603EB82078B19009311
:104980004B1D019352E0204606F0CDFD09F80500CD
:1049900010F0FF0009EB050362D0009A0199324440
:1049A0004A4442EA040C01EB060E1CF0030F04F12A
:1049B0000401CE440CBF4FF0010C4FF0000C7445C5
:1049C00038BF8A422CBF012100211CEA010F3DD0D3
:1049D00009283BD9011F890801318D00A4F1040C7D
:1049E0004FF0000E9B460EF1010E5CF8043F42F8BA
:1049F000043B7145F7D8A8425B4605F1010211D08E
:104A000014F821100BF80210824205F1020109DAB4
:104A1000A25C0BF8012088420A4605F1030501DD7E
:104A2000A25C5A550130BA4506440BD05AF8044BE3
:104A300006EB0805002CA6D10120BA4509F805406F
:104A40000644F3D1304603B0BDE8F08F05444D4431
:104A5000013C14F8012F03F8012FAB42F9D1E1E733
:104A60000120E0E70126EDE7030A022B16D0032B15
:104A700009D0012B03D00020034613607047094B77
:104A8000136012207047C0B20228F4D8064B0749C1
:104A900053F82030136031F810007047044B136056
:104AA0003E20704798B802087CB9020888B902080D
:104AB00090B90208454A92F83E319B0710D570B56F
:104AC0004349847C8B889BB29C4200D070BD4B785C
:104AD000203B0446032BF9D8DFE803F0183F6303BB
:104AE00070470B783A49212BF0D13A4892F83E3181
:104AF000856823F0020382F83E31002DE6D0498814
:104B000020462B46C9B2BDE8704018470B78212BD0
:104B1000DCD192F83E0192F83C312F4920F002009E
:104B20002C2582F83E0105FB032202E00B78002BC6
:104B3000CCD093689B06F9D500F06CFCA06100F026
:104B40003DFC207700F03AFC607700F037FC214B09
:104B5000A0771B68002B34D1B8E70B78A12BB5D117
:104B600092F83E1192F83C3121F002012C2082F89B
:104B70003E1100FB03229368D806FCD49368990782
:104B8000F9D5A06900F030FC207F00F001FC607FC7
:104B900000F0FEFBA07F00F0FBFBBDE8704000F0E2
:104BA000A7BB0B780A49212B90D192F83E310948D6
:104BB00023F0020382F83E3143684A88A282002B28
:104BC00084D02046BDE87040184700BF9CFFFE1F00
:104BD00094FDFE1FE490FE1F91FDFE1F38B50222DA
:104BE00000230321037543758375C37503764376EC
:104BF0008376C376037743778377C37702718272B4
:104C000001740121044600F01BFC01210546A01D92
:104C100000F016FC0121002804F10C0008BF00255B
:104C200000F00EFC002814BF2846002038BD00BF4D
:104C30001C4B1A78042A00D070478269002AFBD0E6
:104C400070B40278184902F00F042C2622F07F027B
:104C500006FB041581F83C4181F83D21AA68D40681
:104C600005D4AA68920702D51B78042B01D070BC2A
:104C700070478369002BFAD0037803F00F0206FB1C
:104C8000021623F07F0381F83C2181F83D3133790E
:104C90001B064CBFB38BB389002BE8D070BC00F06F
:104CA00027BB00BF91FDFE1F9CFFFE1F0F4B1B7813
:104CB000042B01D0022070478369002BFAD010B575
:104CC00003780B4A0C46204603F00F0123F07F03C4
:104CD00082F83C1182F83D3106F025FC002281B2B9
:104CE0002046BDE8104000F0EBB900BF91FDFE1F6B
:104CF0009CFFFE1F0C4B1B78042B01D00220704739
:104D00008369002BFAD030B40378084C03F00F0508
:104D100023F07F03084684F83C51114684F83D3166
:104D2000002230BC00F0CCB991FDFE1F9CFFFE1F9D
:104D300008B5104B1B78042B01D0022008BD8369F5
:104D4000002BFAD003780C4903F00F002C2202FB51
:104D5000001223F07F0381F83C0181F83D31137983
:104D60001B064CBF908B90890028E7D000F0C0FA5A
:104D7000002008BD91FDFE1F9CFFFE1F08B5134BD0
:104D80001B78042B01D0002008BD8369002BFAD0CA
:104D900082790F4902F00F002C2322F07F0203FBDF
:104DA000001381F83D2181F83C019A689106EAD50B
:104DB0001A79120605D5988B0028E5D100F06CFA17
:104DC000E1E798890028DFD1F8E700BF91FDFE1FD9
:104DD0009CFFFE1F014B01221A707047ECFCFE1F66
:104DE000014B01225A707047ECFCFE1F014B01225F
:104DF0009A707047ECFCFE1F08B581200E494022D6
:104E000001F00EF882200D49402201F009F803203C
:104E10000B49402201F004F80A48FFF7DFFE48B1D1
:104E2000094A0A4992F83E31042043F0010382F80E
:104E30003E31087008BD00BFF0FCFE1FACFCFE1F39
:104E400030FDFE1F70FDFE1F9CFFFE1F91FDFE1F2B
:104E50000148FFF72FBE00BF70FDFE1F2D4991F8DE
:104E60003E21D30700D470472B482C4B00682DE916
:104E7000F04E6FF300024FF0000A4FF00309284C88
:104E800081F83E2183F812A083F811A083F81090D6
:104E9000026966695661E669D661A66983F80BA066
:104EA00082B083F805A083F8069096614FF0810ADE
:104EB000266983F80CA04FF00809A3F80E9021682A
:104EC000A768E56816614FF0400B266AA3F808B0A2
:104ED0004FF0020A4FF0820983F80AA00191A3F86B
:104EE00002B0616883F804A083F8009016629760AE
:104EF000D560019B1360636A5160536200F0FAFE53
:104F000010B102B0BDE8F08E02B0BDE8F04E00F086
:104F10007BBF00BF9CFFFE1F1891FE1F70FDFE1F90
:104F2000F090FE1F264A274B106827492DE9F04EC6
:104F30004FF0000A4FF0030983F812A083F811A084
:104F400083F8109002694E695661CE69D66182B0CD
:104F50008E690C68966183F80BA00E6983F805A032
:104F600083F806904FF0810A4FF00809CD688F68EA
:104F7000166183F80CA00E6AA3F80E9001944FF00E
:104F8000400B4FF0020A4FF082094C68A3F808B0BA
:104F9000166283F80AA0D5609760A3F802B083F880
:104FA00004A083F80090019B82E818004B6A5362CA
:104FB00000F0A0FE003018BF012002B0BDE8F08E66
:104FC0001891FE1F70FDFE1FF090FE1F08B500F047
:104FD00021FF30B1034B1878A0F10400B0FA80F043
:104FE000400908BD91FDFE1F10B511B906242046E9
:104FF00010BD0028FAD00A4601460748FFF77AFE9E
:105000000028054814BF06240024FFF791FE00285D
:1050100018BF0624204610BD70FDFE1F10B578B1E4
:1050200001460948FFF742FE0028074814BF06243E
:105030000024FFF77DFE002818BF0624204610BD7F
:105040000624204610BD00BF70FDFE1F30B583B0A2
:105050000023ADF8063011B9062003B030BD00289A
:10506000FAD00B4A0C460321054682F83D3182F8FE
:105070003C11284621460DF1060200F071F8052882
:10508000F7D000280CBF0020062003B030BD00BFC1
:105090009CFFFE1F38B5074C4FF40065C4F88C50D8
:1050A000BFF34F8FBFF36F8F0348FFF767FEE560D5
:1050B00038BD00BF00E100E070FDFE1F00F0A4BE9F
:1050C0002DE9F84F254B0C46804693F83C1191464C
:1050D000002A3BD01788E41BA4B22C2606FB01361D
:1050E000F4B1B368DB06FCD400F03AF9F8B1756AA4
:1050F000F0692D1AA54216D8ADB2641B1FFA84FBC5
:105100002C46336A08EB07012A46184406F0F8F9E2
:10511000F36927441D445C46BFB2F561002CE0D121
:105120002046BDE8F88F25464FF0000BE9E700F078
:10513000DFF83389C3F386139C4202DAB9F1000F1A
:1051400006D100F05DF80028CAD0EAE71746C4E7A8
:10515000A9F800700520BDE8F88F00BF9CFFFE1F76
:105160002DE9F84F254B0C46814693F83C119246A9
:10517000002A3BD0B2F80080C8EB0404A4B22C256E
:1051800005FB01350CB3AB681B07FCD400F0E8F855
:1051900010B3EE68A6421BD8B3B2E41A1FFA84FB20
:1051A0001C462B696969324609EB0800194406F070
:1051B000A7F9EA682B69A044921B5C461E441FFABB
:1051C00088F8EA602E61002CDDD12046BDE8F88F1A
:1051D00026464FF0000BE4E700F05EF8BAF1000F4E
:1051E00006D100F00DF80028CCD0EFE79046C6E7D6
:1051F000AAF800800520BDE8F88F00BF9CFFFE1FC5
:105200002DE9F843224C234D23689B6B9847A14618
:10521000804664262C2794F83C3107FB0342117921
:1052200008061AD4926892062BD42A7802F0FF015D
:1052300022B305291FD007FB03439868C0F3800001
:10524000A8B9D9F800309B6B9847804511D0731EE0
:10525000DBB2CEB180461E46DDE79068C0F3001099
:105260000028E2D192689107DFD5BDE8F883BDE858
:10527000F8833346EEE70320BDE8F8830220BDE85B
:10528000F8830020BDE8F8830420BDE8F88300BF60
:105290009CFFFE1F91FDFE1F70B5144D95F83C312B
:1052A0002C2404FB0354A3689A0700D470BD2B6818
:1052B0006169DB6AA26920799847A368E0600021F0
:1052C0001B0702462161F1D40028EFD12389207900
:1052D000A16943F008032381238962F345132381E5
:1052E0002B68BDE870409B6A184700BF9CFFFE1FFB
:1052F000F8B5194991F83C312C2202FB03139A6846
:10530000D00602D49A68920700D4F8BD18891F6AA3
:10531000124E40F0100003F1280503F1200418811B
:10532000D869A0606F6000204FF40067D861C6F8AC
:105330008C70BFF34F8FBFF36F8F0A68187969685D
:10534000136BA26898476A68A36802441B1A6A60D4
:10535000A360F760F8BD00BF9CFFFE1F00E100E006
:105360000A4B93F83C212C2101FB02331A791206D7
:1053700004D4D868003018BF01207047586ADA6931
:1053800082422CBF00200120704700BF9CFFFE1FFF
:10539000094A92F83C312C2101FB032202F1180347
:1053A000516A5A688A4200D3FEE7996888545A685D
:1053B00001325A60704700BF9CFFFE1F094B93F8F3
:1053C0003C212C2101FB023303F10802516801B991
:1053D000FEE7586993680139C05C516001339360FE
:1053E000704700BF9CFFFE1F094A92F83C312C21F8
:1053F00001FB032202F11803526A5968033A9142F1
:1054000000D3FEE79A6850505A6804325A607047D9
:105410009CFFFE1F094B93F83C212C2101FB02331A
:1054200003F108025168032900D8FEE75869936820
:105430000439C05851600433936070479CFFFE1FCD
:10544000002942D02DE9F8434D1EE9B2204F062530
:1054500005FB01050A3500F104093E464FF02C0812
:105460001CE019F8042C1A7139F8022C198962F31E
:105470008C11CAB242F0010219811A721A8942F0E3
:1054800002021A8119F8040C020609F1060903D474
:1054900032689969936A9847A94513D019F8043C72
:1054A0003A6899F80010D2F81CC039F8022C184656
:1054B00003F00F04E04708FB04630028D1D000206C
:1054C000BDE8F8830120BDE8F8830120704700BFE4
:1054D0009CFFFE1F09280ED8DFE810F00A00190013
:1054E00023002A0034000D00E8000E000D00F60035
:1054F000B74B01221A707047B64BB54AD3F840013A
:1055000093F83A1183691170002BF4D01847B14B0E
:10551000AF4AD3F840315B6800211170002BF5D100
:10552000E9E7AC4BD3F840311B68002BEED1E2E742
:10553000A84BA74AD3F840315B6801211170002BBA
:10554000E4D1D8E770B5A24BA24C02221A7022898E
:1055500094F83E316FF30412228122896FF3C30263
:10556000228122896FF382022281A28E6FF30412BC
:10557000A286A28E6FF3C302A286A28E6FF382026E
:10558000A28694F834206FF38203012184F83E311F
:10559000D30784F83B1100F19F80B4F860308D4D43
:1055A0006FF30413A4F86030B4F860306FF3C303F2
:1055B000A4F86030B4F860306FF38203A4F8603070
:1055C00094F86030DE0700F1EC80B4F88C30814D47
:1055D0006FF30413A4F88C30B4F88C306FF3C3036A
:1055E000A4F88C30B4F88C306FF38203A4F88C30BC
:1055F00094F88C30D80700F1BF80B4F8B830754DFE
:105600006FF30413A4F8B830B4F8B8306FF3C303E1
:10561000A4F8B830B4F8B8306FF38203A4F8B83007
:1056200094F8B830D90700F19280B4F8E430694DAD
:105630006FF30413A4F8E430B4F8E4306FF3C30359
:10564000A4F8E430B4F8E4306FF38203A4F8E43053
:1056500094F8E430DA0766D4B4F810315D4D6FF396
:105660000413A4F81031B4F810316FF3C303A4F895
:105670001031B4F810316FF38203A4F8103194F8AC
:105680001031DB073BD40023226884F8393184F8D9
:105690003831936A207918219847D4F840315B6AF1
:1056A000002B00F09380BDE870401847494A484BF2
:1056B000D2F84011187882F83A01CA6905211970A8
:1056C000002A3FF418AF1047424BD3F840311B6A11
:1056D000002B7FF41BAF0EE7236894F830001B6AA1
:1056E000984700287FF459AF94F8343060F30003F2
:1056F00084F83430A38E60F34103A3864DE72B6812
:1057000095F80C011B6A98470028BCD195F8103118
:1057100060F3000385F81031B5F8103160F34103F0
:10572000A5F81031AFE72B6895F8E0001B6A9847A1
:10573000002891D195F8E43060F3000385F8E43057
:10574000B5F8E43060F34103A5F8E43084E72B6852
:1057500095F8B4001B6A984700287FF466AF95F867
:10576000B83060F3000385F8B830B5F8B83060F3AE
:105770004103A5F8B83058E72B6895F888001B6AF4
:10578000984700287FF439AF95F88C3060F3000318
:1057900085F88C30B5F88C3060F34103A5F88C3077
:1057A0002BE72B6895F85C001B6A984700287FF46C
:1057B0000CAF95F8603060F3000385F86030B5F801
:1057C000603060F34103A5F86030FEE670BD00BFB5
:1057D00091FDFE1F9CFFFE1F10B5084C2368802022
:1057E0005B6A0121984700B110BD236801229B6AC2
:1057F00084F83B211821BDE8104018479CFFFE1F8C
:1058000070B5A24CA24ED4F840317088DA6882B0EC
:10581000002385B20093019302B1904794F83E3182
:105820009B0707D494F83E3123F0020384F83E31FD
:1058300002B070BD7378EDB20C2B16D8DFE813F010
